:0A01E900EF1FAC0670011E4C600E03
:0C01F300750C02750DEFD50DFDD50CFA52
:0301FF0080E82273
:0401BF00AB07AA06DA
:1001C300E4F583F582AF827480A807088002C31325
:1001D300D8FCF4F5A0AF03AE021201E9A3E58264F3
:0501E30008458370E0F7
:0101E80022F4
:04014B008E0E8F0F76
:10014F00E4FBFAF510751180EB4A7007E511F4F531
:10015F00A08013AE10AF117C007D02120003EFF4EC
:10016F00F5A08E108F11AF0FAE0E1201E90BBB0071
:08017F00010AEB64084A70D08C
:010187002255
:04018800AB07AA0611
:10018C00E4F583F582E5824583700575A0FF801246
:10019C00AF82EF14FF747FA807088002C313D8FC4A
:1001AC00F5A0AF03AE021201E9A3E5826409458311
:0201BC0070D3FE
:0101BE00221E
:0400F9008E128F13C1
:1000FD00E4FBFA900080F514F515EB4A7004F5A0B9
:10010D008029EB64084A700575A0FF801EE58225E5
:10011D0015F515E5833514F5148515A07C007D02C4
:10012D00AF82AE831200038E838F82AF13AE121295
:0D013D0001E90BBB00010AEB64094A70BD2B
:01014A002292
:04008E008E088F0940
:10009200E4FB900080F50AF50BEB700575A0FF807C
:1000A20010EB14FF747FA807088002C313D8FCF575
:1000B200A0AF09AE081201E90BBB09DDE4FBEB704E
:1000C20004F5A08026BB080575A0FF801EE58225E9
:1000D2000BF50BE583350AF50A850BA07C007D0242
:1000E200AF82AE831200038E838F82AF09AE0812F5
:0600F20001E90BBB09C887
:0100F80022E5
:09020E007F2C7E0112008E80F7A6
:03000000020202F7
:0C020200787FE4F6D8FD75811502020E2D
:10000300C2D5EC30E709B2D5E4C39DFDE49CFCEE18
:1000130030E715B2D5E4C39FFFE49EFE120039C357
:10002300E49DFDE49CFC800312003930D507C3E452
:060033009FFFE49EFE2287
:10003900BC000BBE0029EF8DF084FFADF022E4CCAB
:10004900F875F008EF2FFFEE33FEEC33FCEE9DEC74
:10005900984005FCEE9DFE0FD5F0E9E4CEFD22EDBA
:10006900F8F5F0EE8420D21CFEADF075F008EF2F04
:10007900FFED33FD4007985006D5F0F222C398FDF5
:050089000FD5F0EA2292
:00000001FF
